:100000000C9461000C947E000C947E000C947E0095
:100010000C947E000C94E8030C947E000C947E00FB
:100020000C947E000C947E000C947E000C947E0058
:100030000C947E000C947E000C947E000C947E0048
:100040000C9429030C947E000C9473030C947E0092
:100050000C947E000C947E000C947E000C947E0028
:100060000C947E000C947E00000000002400270009
:100070002A0000000000250028002B0000000000DE
:1000800023002600290004040404040404040202DA
:100090000202020203030303030301020408102007
:1000A0004080010204081020010204081020000012
:1000B0000008000201000003040700000000000027
:1000C000000011241FBECFEFD8E0DEBFCDBF11E08E
:1000D000A0E0B1E0EEE1F5E102C005900D92AC3692
:1000E000B107D9F723E0ACE6B1E001C01D92A93D0C
:1000F000B207E1F70E9423040C948D0A0C940000CF
:10010000833081F028F4813099F08230A1F0089595
:100110008730A9F08830B9F08430D1F48091800024
:100120008F7D03C0809180008F7780938000089539
:1001300084B58F7702C084B58F7D84BD089580918A
:10014000B0008F7703C08091B0008F7D8093B000A6
:100150000895CF93DF93E7EBF0E08491E3EAF0E0DA
:10016000D491EFE8F0E0C491CC2391F081110E948A
:100170008000EC2FF0E0EE0FFF1FE458FF4FA59139
:10018000B491EC91ED2381E090E021F480E002C095
:1001900080E090E0DF91CF9108951F93CF93DF939C
:1001A000282F30E0F901E255FF4F8491F901E6561E
:1001B000FF4FD491F901EA57FF4FC491CC23C1F00E
:1001C000162F81110E948000EC2FF0E0EE0FFF1F30
:1001D000EE58FF4FA591B4919FB7F894111104C048
:1001E0008C91D095D82302C0EC91DE2BDC939FBF7D
:1001F000DF91CF911F9108952FB7F8946091CE01B0
:100200007091CF018091D0019091D1012FBF0895BD
:10021000CF92DF92EF92FF9290911401981711F113
:100220000E94FC006B017C0161E08DE00E94CD002A
:100230000E94FC00DC01CB018C199D09AE09BF09AD
:1002400080359105A105B10598F360E08DE00E942D
:10025000CD008091140187ED8093140180911401E9
:1002600080E001C08FEFFF90EF90DF90CF90089576
:1002700090917C00907F90937C0090917C008F7097
:10028000982B90937C0080917A00806480937A0010
:1002900080917A0086FDFCCF8091780020917900D2
:1002A00090E0922B08958A3039F49091C00095FF28
:1002B000FCCF9DE09093C6009091C00095FFFCCFCD
:1002C0008093C60080E090E00895CF93DF93DC0137
:1002D0008091C601811102C082EF4CC01092C6010C
:1002E00090917D0180911501981711F08AEF42C01D
:1002F00080917F018A5F90E0CBE7D1E0AE012FEFE4
:100300003FEFBA016B5771406817790788F4FA011B
:100310006191AF01E62FE327F0E0EE0FFF1FEE52F1
:10032000FE4F60817181322F222726273727E9CFA0
:100330008091C20182131DC08091C101381319C080
:10034000FD018991819381E0C138D807D1F71496D6
:100350009C911497169620E030E0291740F4F9019B
:10036000E558FE4F86818D932F5F3F4FF6CF892F43
:1003700004C08CEF8093D2038FEFDF91CF9108956B
:10038000CF93DF93FC019FB7F8942FEF3FEF3183BA
:100390002083809115018383848146E0480F50E0DB
:1003A000EF01BE016E1B7F0B6417750770F4A991F6
:1003B000A327B0E0AA0FBB1FAE52BE4F6D917C9138
:1003C000322F222726273727ECCFDF01AA5BBF4F2A
:1003D0003C9311962C938F3348F4DF01A80FB11D85
:1003E00016963C93169717962C9307C0803429F0E5
:1003F0008EEF8093D2038FEF29C038E0380FAFE93A
:10040000BFE01197F1F700C000002091C00027FF66
:1004100003C02091C600F9CF289ADF012A2F2E1B96
:10042000231740F42091C00025FFFCCF2D9120938D
:10043000C600F4CF2091C00025FFFCCFEFE9FFE01C
:100440003197F1F700C0000028989FBFDF91CF914E
:100450000895CF93DF93CDB7DEB7C854D1090FB657
:10046000F894DEBF0FBECDBFCE0101960E9465019C
:100470008F3F09F181111FC08E81883D61F0883F57
:1004800021F0873DC1F486ED07C08CEF8B8381E0BE
:100490008D8388EB08C087ED0E9408018CEF8B8369
:1004A00081E08D8389EB8E83809114018F83CE014F
:1004B00001960E94C001C85BDF4F0FB6F894DEBF03
:1004C0000FBECDBFDF91CF9108958F929F92AF92D3
:1004D000BF92CF92DF92EF92FF92CF93DF93CDB78F
:1004E000DEB7C059D1090FB6F894DEBF0FBECDBF3D
:1004F000CE01875B9F4F0E9465018F3F09F497C033
:100500002091C7013091C8012115310529F0213012
:10051000310509F445C07AC0813009F088C02F96B2
:100520008FAD2F978A3F09F082C00E94DC066FE2F0
:1005300070E00E9457076C01CC0CDD1C0E94FC008F
:100540004B015C01E12CF12C0E94FC00DC01CB0191
:1005500088199909AA09BB098C159D05AE05BF0527
:1005600048F48091C601882379F3CE0101960E9458
:1005700065015DC08CEF8B838BEF8E8360968FADB2
:1005800060978F8383E0888719868D83CE010196DB
:100590000E94C0018F3F09F44AC081E090E02CC066
:1005A000813079F52F969FAD2F979C3F51F560963E
:1005B0002FAD6097209313018093C5018FB7F894F6
:1005C00020911301209315012091C3013091C401A2
:1005D00030931201209311018FBF9B8380911501ED
:1005E0008C838DEF8E831D82CE0101960E94C00107
:1005F0008F3F39F082E090E09093C8018093C7016B
:1006000016C01092C8011092C70111C083EF8093E9
:10061000D2038AE191E00E9495072FEF83ED90E3EA
:10062000215080409040E1F700C00000F2CFC05759
:10063000DF4F0FB6F894DEBF0FBECDBFDF91CF9175
:10064000FF90EF90DF90CF90BF90AF909F908F90F2
:1006500008951F920F920FB60F9211242F933F937C
:100660008F939F93AF93BF938091CE019091CF01D1
:10067000A091D001B091D1013091CD0123E0230FA1
:100680002D3720F40196A11DB11D05C026E8230FCA
:100690000296A11DB11D2093CD018093CE019093B0
:1006A000CF01A093D001B093D1018091C901909165
:1006B000CA01A091CB01B091CC010196A11DB11D41
:1006C0008093C9019093CA01A093CB01B093CC0150
:1006D000BF91AF919F918F913F912F910F900FBE3E
:1006E0000F901F9018951F920F920FB60F92112422
:1006F0002F938F939F93EF93FF938091C6009091D8
:100700001001911109C092E09093100110920F0115
:100710009FEF90930E0107C08F3F11F4915001C0DD
:1007200092E09093100190910F01983408F046C028
:100730009430F9F0973469F091112FC09FEF9093A6
:100740007B0190937C0193E090930F0180937D0156
:1007500017C08093C2018FEF80930F0180930E0129
:1007600081E08093C6015C9B02C05C9827C05C9AC4
:1007700025C0813440F08FEF80930F0180930E01EC
:100780001092C6011BC096E0980F90930E0195E061
:1007900090930F0180937F0111C020910E0192135D
:1007A00003C096E490930F01E0910F0191E09E0F3A
:1007B00090930F01F0E0E558FE4F8083FF91EF9199
:1007C0009F918F912F910F900FBE0F901F901895B2
:1007D0001F920F920FB60F9211242F933F934F93B6
:1007E0005F936F937F938F939F93AF93BF93EF9399
:1007F000FF939BB180917A0189279BB190937A01F5
:1008000084FF10C080916D008F7E80936D0078947E
:10081000E0911101F0911201099580916D008061C4
:1008200080936D00FF91EF91BF91AF919F918F9158
:100830007F916F915F914F913F912F910F900FBEDC
:100840000F901F901895789484B5826084BD84B50C
:10085000816084BD85B5826085BD85B5816085BDBB
:1008600080916E00816080936E0010928100809173
:1008700081008260809381008091810081608093FB
:100880008100809180008160809380008091B10020
:1008900084608093B1008091B00081608093B0004B
:1008A00080917A00846080937A0080917A008260DF
:1008B00080937A0080917A00816080937A008091A1
:1008C0007A00806880937A001092C1008BB1809387
:1008D0007A0180E091E09093D6038093D503209A2B
:1008E00028989FB7F8948091C00082608093C000E0
:1008F0008091C10080618093C1008091C1008860B7
:100900008093C1008091C2008F778093C200809154
:10091000C2008F7B8093C2008091C2008F7D809344
:10092000C2008091C2008F7E8093C2008091C2007D
:1009300088608093C2008091C2008B7F8093C20048
:100940008091C20084608093C2008091C200826066
:100950008093C2001092C50080E18093C4009FBFC5
:100960008091C10080688093C100549A80916D008D
:10097000806180936D00809168008460809368003E
:1009800078947894E2EDF1E020E030E0922F88272F
:1009900048E0BC01660F771F97FF06C0CB0151E20C
:1009A000852750E1952701C0CB01415091F78193F4
:1009B00091932F5F3F4F211581E0380739F7CFB76B
:1009C000F894F999FECF07B600FCFDCF80E090E0E7
:1009D0000E94EC068A3A71F4F999FECF07B600FC42
:1009E000FDCF81E090E00E94EC0680931501CFBF1F
:1009F000C0E005C084EF8093D203CFBFCFEF8C2F30
:100A00000C2E000C990B9F93CF9389E291E09F935A
:100A10008F930E947F070F900F900F900F90CF3F02
:100A200039F082E090E09093C8018093C70172C0D2
:100A30008091D203843F09F05FC080917C008F7762
:100A400080937C0080917C00806480937C00809106
:100A50007C008F7D80937C0080917A0084608093FD
:100A60007A0080917A00826080937A0080917A0087
:100A7000816080937A0080917A00806880937A0008
:100A800087E00E9438016C0186E00E9438017C01F9
:100A900085E00E9438012FE0E222FF2454E0EE0CB2
:100AA000FF1C5A95E1F78F709927982F8827E82A1D
:100AB000F92A3FE0C322DD24EC28FD2884E00E94CF
:100AC0003801982F88279295907F8E299F290E9420
:100AD000E1061092C8011092C70180911101909116
:100AE00012019093C4018093C30185E692E0909334
:100AF0001201809311010EC08DE391E00E949507D1
:100B00004FEF53ED80E3415050408040E1F700C08B
:100B10000000F2CFE7EAF0E02491E3E9F0E084910D
:100B2000882399F090E0880F991FFC01E859FF4F46
:100B3000A591B491FC01EE58FF4F859194918FB728
:100B4000F894EC91E22BEC938FBFE3EAF0E0249170
:100B5000EFE8F0E084918823C1F090E0880F991FBE
:100B6000FC01E859FF4FC591D491FC01EE58FF4FAD
:100B7000A591B4919FB7F8948881E22FE0958E23D8
:100B800088838C91E823EC939FBF61E089E00E9409
:100B9000CD001092750110927101109272011092A5
:100BA0007301109274011092700110926C011092F6
:100BB0006D0110926E0110926F01109276011092E9
:100BC00077011092780110927901CCE4D1E011E024
:100BD0008091C7019091C80182309105E8F0029799
:100BE00069F4809115011F928F93DF93CF930E9438
:100BF0007F070F900F900F900F900EC08CE591E043
:100C00000E9495073FEF43ED50E331504040504084
:100C1000E1F700C00000F2CF0E94FC006B017C01F4
:100C200060937601709377018093780190937901B6
:100C300080917501882381F10E94A900892B49F5D3
:100C40008091710190917201A0917301B091740132
:100C5000A7019601281B390B4A0B5B0B2F36310578
:100C60004105510538F11093700161E08DE00E945B
:100C7000CD00C0927101D0927201E0927301F092A6
:100C80007401C0926C01D0926D01E0926E01F092FD
:100C90006F01109275010EC00E94A900892B51F4BA
:100CA00010937501C0927101D0927201E0927301AC
:100CB000F092740180917001882309F489CF0E9419
:100CC000A900019709F084CF80916C0190916D018A
:100CD000A0916E01B0916F01A7019601281B390BFD
:100CE0004A0B5B0B213531054105510508F470CFE6
:100CF00060E08DE00E94CD0080911401873D11F0ED
:100D000087ED01C086ED80931401C0926C01D092F2
:100D10006D01E0926E01F0926F011092700158CF58
:100D20008F929F92AF92BF92CF92DF92EF92FF92FB
:100D3000CF93DF93EC01688179818A819B81611572
:100D400071058105910521F464E279ED8BE597E069
:100D50002DE133EF41E050E00E94F40649015A01D1
:100D60009B01AC01A7EAB1E40E9413076B017C016F
:100D7000ACEEB4EFA50194010E942107DC01CB0188
:100D80008C0D9D1DAE1DBF1DB7FF03C00197A109AE
:100D9000B04888839983AA83BB839F77DF91CF91E3
:100DA000FF90EF90DF90CF90BF90AF909F908F908B
:100DB00008950E949006089586E191E00E949006B1
:100DC0000895A0E0B0E08093160190931701A093DE
:100DD0001801B09319010895F999FECF92BD81BD14
:100DE000F89A992780B50895052E97FB1EF4009474
:100DF0000E940B0757FD07D00E94260707FC03D06F
:100E00004EF40C940B0750954095309521953F4F2B
:100E10004F4F5F4F089590958095709561957F4FE6
:100E20008F4F9F4F08950E944807A59F900DB49F34
:100E3000900DA49F800D911D11240895B7FF0C946F
:100E400013070E941307821B930B0895A1E21A2E29
:100E5000AA1BBB1BFD010DC0AA1FBB1FEE1FFF1F5E
:100E6000A217B307E407F50720F0A21BB30BE40BAE
:100E7000F50B661F771F881F991F1A9469F76095F5
:100E80007095809590959B01AC01BD01CF010895AF
:100E9000A29FB001B39FC001A39F700D811D1124BB
:100EA000911DB29F700D811D1124911D089597FB16
:100EB000072E16F4009407D077FD09D00E946B0727
:100EC00007FC05D03EF4909581959F4F089570954D
:100ED00061957F4F0895AA1BBB1B51E107C0AA1F54
:100EE000BB1FA617B70710F0A61BB70B881F991FCB
:100EF0005A95A9F780959095BC01CD010895A0E081
:100F0000B0E0E5E8F7E00C94660AAE014B5F5F4F96
:100F1000FA0161917191AF018091D5039091D6034F
:100F20000E94C507E2E00C94820A0F931F93CF93AF
:100F3000DF93E091D503F091D603238121FF1BC0FD
:100F40008C01D0E0C0E0F80181918F016091D50360
:100F50007091D603DB011896ED91FC9119978823C7
:100F600031F00995892B79F3DFEFCFEFECCF8AE0F1
:100F70000995892B19F08FEF9FEF02C08D2F9C2FC1
:100F8000DF91CF911F910F910895ABE0B0E0EBECB2
:100F9000F7E00C94560A6C017B018A01FC01178270
:100FA0001682838181FFCCC1CE0101963C01F601FE
:100FB0009381F70193FD859193FF81917F018823B0
:100FC00009F4BAC1853239F493FD859193FF81917B
:100FD0007F01853229F4B60190E00E94BC09E7CF79
:100FE000912C212C312CFFE1F315D8F08B3279F0C4
:100FF00038F4803279F08332A1F4232D20611DC0B2
:101000008D3261F0803369F4232D216016C0832D69
:101010008260382EE32DE4603E2E2AC0F32DF86066
:101020001DC037FC2DC020ED280F2A3040F08E3235
:10103000B9F436FC81C1232D2064322E19C036FE4E
:1010400006C08AE0989E200D1124922E11C0EAE07D
:101050002E9E200D1124222EF32DF0623F2E08C06B
:101060008C3621F4832D8068382E02C0883641F4F6
:10107000F70193FD859193FF81917F018111B3CF9A
:10108000982F9F7D9554933028F40C5F1F4F9FE35A
:1010900099830DC0833631F0833771F0833509F0C1
:1010A00059C021C0F801808189830E5F1F4F8824B9
:1010B0008394912C530113C02801F2E04F0E511C70
:1010C000F801A080B18036FE03C0692D70E002C037
:1010D0006FEF7FEFC5010E94B1094C018201F32D32
:1010E000FF773F2E16C0280122E0420E511CF80166
:1010F000A080B18036FE03C0692D70E002C06FEFA2
:101100007FEFC5010E94A6094C01F32DF0683F2E28
:10111000820133FC1BC0822D90E088169906B0F442
:10112000B60180E290E00E94BC092A94F4CFF50158
:1011300037FC859137FE81915F01B60190E00E94F6
:10114000BC0921102A9421E0821A9108811491048B
:1011500071F7E8C0843611F0893641F5F80137FEA1
:1011600007C060817181828193810C5F1F4F08C02D
:1011700060817181072E000C880B990B0E5F1F4F49
:10118000F32DFF763F2E97FF09C0909580957095BF
:1011900061957F4F8F4F9F4FF0683F2E2AE030E0E0
:1011A000A3010E94F809882E861845C0853731F4BE
:1011B000232D2F7EB22E2AE030E025C0932D997F7B
:1011C000B92E8F36C1F018F4883579F0B5C0803764
:1011D00019F0883721F0B0C0E92FE061BE2EB4FECF
:1011E0000DC0FB2DF460BF2E09C034FE0AC0292FAC
:1011F0002660B22E06C028E030E005C020E130E0D5
:1012000002C020E132E0F801B7FE07C060817181C1
:10121000828193810C5F1F4F06C06081718180E0E5
:1012200090E00E5F1F4FA3010E94F809882E8618D8
:10123000FB2DFF773F2E36FE0DC0232D2E7FA22ED5
:10124000891458F434FE0BC032FC09C0832D8E7E05
:10125000A82E05C0B82CA32C03C0B82C01C0B92CF3
:10126000A4FE0FC0FE01E80DF11D8081803321F442
:101270009A2D997EA92E09C0A2FE06C0B394B394FC
:1012800004C08A2D867809F0B394A3FC11C0A0FE97
:1012900006C0B21488F4280C922C9B180EC0B2140D
:1012A00060F4B60180E290E00E94BC09B394F7CFED
:1012B000B21418F42B1802C0982C212CA4FE10C0D4
:1012C000B60180E390E00E94BC09A2FE17C0A1FC19
:1012D00003C088E790E002C088E590E0B6010CC04A
:1012E0008A2D867859F0A1FE02C08BE201C080E20F
:1012F000A7FC8DE2B60190E00E94BC09891438F485
:10130000B60180E390E00E94BC099A94F7CF8A94DA
:10131000F301E80DF11D8081B60190E00E94BC0947
:101320008110F5CF222009F442CEB60180E290E090
:101330000E94BC092A94F6CFF6018681978102C0EB
:101340008FEF9FEF2B96E2E10C94720AFC0105905F
:10135000615070400110D8F7809590958E0F9F1FB7
:101360000895FC016150704001900110D8F78095FC
:1013700090958E0F9F1F08950F931F93CF93DF9328
:10138000FB01238121FD03C08FEF9FEF2CC022FFC3
:1013900016C046815781248135814217530744F492
:1013A000A081B1819D012F5F3F4F318320838C93BA
:1013B000268137812F5F3F4F3783268314C08B01EF
:1013C000EC01FB010084F185E02D0995892BE1F604
:1013D000D80116968D919C911797019617969C931C
:1013E0008E931697CE01DF91CF911F910F910895A3
:1013F000FA01AA27283051F1203181F1E8946F9346
:101400006E7F6E5F7F4F8F4F9F4FAF4FB1E03ED0EB
:10141000B4E03CD0670F781F891F9A1FA11D680F89
:10142000791F8A1F911DA11D6A0F711D811D911DBC
:10143000A11D20D009F468943F912AE0269F112431
:101440003019305D3193DEF6CF010895462F477095
:10145000405D4193B3E00FD0C9F7F6CF462F4F70F0
:10146000405D4A3318F0495D31FD4052419302D04E
:10147000A9F7EACFB4E0A6959795879577956795F4
:10148000BA95C9F700976105710508959B01AC01F4
:101490000A2E06945795479537952795BA95C9F71B
:1014A000620F731F841F951FA01D08952F923F92F6
:1014B0004F925F926F927F928F929F92AF92BF9264
:1014C000CF92DF92EF92FF920F931F93CF93DF9310
:1014D000CDB7DEB7CA1BDB0B0FB6F894DEBF0FBE6D
:1014E000CDBF09942A88398848885F846E847D84BA
:1014F0008C849B84AA84B984C884DF80EE80FD80BC
:101500000C811B81AA81B981CE0FD11D0FB6F89431
:0E151000DEBF0FBECDBFED010895F894FFCFF2
:10151E000000000200000000530100000000FFFF69
:10152E00022902FDD6FD01000000496E7465726E3F
:10153E00616C206572726F72006865696C612067FC
:10154E00616D6265726F6E6F2025640A00494E549C
:10155E0045524E414C204552524F52004D7920611A
:10156E006464726573733A2025640A004552524FC3
:0C157E00524520494E5445524E4F00008B
:00000001FF
